{
  "_format": "hh-sol-artifact-1",
  "contractName": "Capstone",
  "sourceName": "contracts/Capstone.sol",
  "abi": [
    {
      "inputs": [],
      "stateMutability": "nonpayable",
      "type": "constructor"
    },
    {
      "anonymous": false,
      "inputs": [
        {
          "indexed": true,
          "internalType": "address",
          "name": "owner",
          "type": "address"
        },
        {
          "indexed": true,
          "internalType": "address",
          "name": "approved",
          "type": "address"
        },
        {
          "indexed": true,
          "internalType": "uint256",
          "name": "tokenId",
          "type": "uint256"
        }
      ],
      "name": "Approval",
      "type": "event"
    },
    {
      "anonymous": false,
      "inputs": [
        {
          "indexed": true,
          "internalType": "address",
          "name": "owner",
          "type": "address"
        },
        {
          "indexed": true,
          "internalType": "address",
          "name": "operator",
          "type": "address"
        },
        {
          "indexed": false,
          "internalType": "bool",
          "name": "approved",
          "type": "bool"
        }
      ],
      "name": "ApprovalForAll",
      "type": "event"
    },
    {
      "anonymous": false,
      "inputs": [
        {
          "indexed": true,
          "internalType": "address",
          "name": "previousOwner",
          "type": "address"
        },
        {
          "indexed": true,
          "internalType": "address",
          "name": "newOwner",
          "type": "address"
        }
      ],
      "name": "OwnershipTransferred",
      "type": "event"
    },
    {
      "anonymous": false,
      "inputs": [
        {
          "indexed": true,
          "internalType": "address",
          "name": "from",
          "type": "address"
        },
        {
          "indexed": true,
          "internalType": "address",
          "name": "to",
          "type": "address"
        },
        {
          "indexed": true,
          "internalType": "uint256",
          "name": "tokenId",
          "type": "uint256"
        }
      ],
      "name": "Transfer",
      "type": "event"
    },
    {
      "inputs": [
        {
          "internalType": "address",
          "name": "to",
          "type": "address"
        },
        {
          "internalType": "uint256",
          "name": "tokenId",
          "type": "uint256"
        }
      ],
      "name": "approve",
      "outputs": [],
      "stateMutability": "nonpayable",
      "type": "function"
    },
    {
      "inputs": [
        {
          "internalType": "address",
          "name": "owner",
          "type": "address"
        }
      ],
      "name": "balanceOf",
      "outputs": [
        {
          "internalType": "uint256",
          "name": "",
          "type": "uint256"
        }
      ],
      "stateMutability": "view",
      "type": "function"
    },
    {
      "inputs": [
        {
          "internalType": "address",
          "name": "to",
          "type": "address"
        },
        {
          "internalType": "uint256",
          "name": "tokenId",
          "type": "uint256"
        }
      ],
      "name": "changeItemOwner",
      "outputs": [],
      "stateMutability": "nonpayable",
      "type": "function"
    },
    {
      "inputs": [
        {
          "internalType": "uint256",
          "name": "tokenId",
          "type": "uint256"
        }
      ],
      "name": "destroyItem",
      "outputs": [],
      "stateMutability": "nonpayable",
      "type": "function"
    },
    {
      "inputs": [
        {
          "internalType": "uint256",
          "name": "tokenId",
          "type": "uint256"
        }
      ],
      "name": "getApproved",
      "outputs": [
        {
          "internalType": "address",
          "name": "",
          "type": "address"
        }
      ],
      "stateMutability": "view",
      "type": "function"
    },
    {
      "inputs": [],
      "name": "getBalanceOf",
      "outputs": [
        {
          "internalType": "uint256",
          "name": "",
          "type": "uint256"
        }
      ],
      "stateMutability": "view",
      "type": "function"
    },
    {
      "inputs": [
        {
          "internalType": "address",
          "name": "owner",
          "type": "address"
        },
        {
          "internalType": "address",
          "name": "operator",
          "type": "address"
        }
      ],
      "name": "isApprovedForAll",
      "outputs": [
        {
          "internalType": "bool",
          "name": "",
          "type": "bool"
        }
      ],
      "stateMutability": "view",
      "type": "function"
    },
    {
      "inputs": [
        {
          "internalType": "string",
          "name": "uri",
          "type": "string"
        }
      ],
      "name": "mintItem",
      "outputs": [
        {
          "internalType": "uint256",
          "name": "",
          "type": "uint256"
        }
      ],
      "stateMutability": "nonpayable",
      "type": "function"
    },
    {
      "inputs": [],
      "name": "name",
      "outputs": [
        {
          "internalType": "string",
          "name": "",
          "type": "string"
        }
      ],
      "stateMutability": "view",
      "type": "function"
    },
    {
      "inputs": [],
      "name": "owner",
      "outputs": [
        {
          "internalType": "address",
          "name": "",
          "type": "address"
        }
      ],
      "stateMutability": "view",
      "type": "function"
    },
    {
      "inputs": [
        {
          "internalType": "uint256",
          "name": "tokenId",
          "type": "uint256"
        }
      ],
      "name": "ownerOf",
      "outputs": [
        {
          "internalType": "address",
          "name": "",
          "type": "address"
        }
      ],
      "stateMutability": "view",
      "type": "function"
    },
    {
      "inputs": [],
      "name": "renounceOwnership",
      "outputs": [],
      "stateMutability": "nonpayable",
      "type": "function"
    },
    {
      "inputs": [
        {
          "internalType": "address",
          "name": "from",
          "type": "address"
        },
        {
          "internalType": "address",
          "name": "to",
          "type": "address"
        },
        {
          "internalType": "uint256",
          "name": "tokenId",
          "type": "uint256"
        }
      ],
      "name": "safeTransferFrom",
      "outputs": [],
      "stateMutability": "nonpayable",
      "type": "function"
    },
    {
      "inputs": [
        {
          "internalType": "address",
          "name": "from",
          "type": "address"
        },
        {
          "internalType": "address",
          "name": "to",
          "type": "address"
        },
        {
          "internalType": "uint256",
          "name": "tokenId",
          "type": "uint256"
        },
        {
          "internalType": "bytes",
          "name": "_data",
          "type": "bytes"
        }
      ],
      "name": "safeTransferFrom",
      "outputs": [],
      "stateMutability": "nonpayable",
      "type": "function"
    },
    {
      "inputs": [
        {
          "internalType": "address",
          "name": "operator",
          "type": "address"
        },
        {
          "internalType": "bool",
          "name": "approved",
          "type": "bool"
        }
      ],
      "name": "setApprovalForAll",
      "outputs": [],
      "stateMutability": "nonpayable",
      "type": "function"
    },
    {
      "inputs": [
        {
          "internalType": "bytes4",
          "name": "interfaceId",
          "type": "bytes4"
        }
      ],
      "name": "supportsInterface",
      "outputs": [
        {
          "internalType": "bool",
          "name": "",
          "type": "bool"
        }
      ],
      "stateMutability": "view",
      "type": "function"
    },
    {
      "inputs": [],
      "name": "symbol",
      "outputs": [
        {
          "internalType": "string",
          "name": "",
          "type": "string"
        }
      ],
      "stateMutability": "view",
      "type": "function"
    },
    {
      "inputs": [
        {
          "internalType": "uint256",
          "name": "index",
          "type": "uint256"
        }
      ],
      "name": "tokenByIndex",
      "outputs": [
        {
          "internalType": "uint256",
          "name": "",
          "type": "uint256"
        }
      ],
      "stateMutability": "view",
      "type": "function"
    },
    {
      "inputs": [
        {
          "internalType": "address",
          "name": "owner",
          "type": "address"
        },
        {
          "internalType": "uint256",
          "name": "index",
          "type": "uint256"
        }
      ],
      "name": "tokenOfOwnerByIndex",
      "outputs": [
        {
          "internalType": "uint256",
          "name": "",
          "type": "uint256"
        }
      ],
      "stateMutability": "view",
      "type": "function"
    },
    {
      "inputs": [
        {
          "internalType": "uint256",
          "name": "tokenId",
          "type": "uint256"
        }
      ],
      "name": "tokenURI",
      "outputs": [
        {
          "internalType": "string",
          "name": "",
          "type": "string"
        }
      ],
      "stateMutability": "view",
      "type": "function"
    },
    {
      "inputs": [],
      "name": "totalSupply",
      "outputs": [
        {
          "internalType": "uint256",
          "name": "",
          "type": "uint256"
        }
      ],
      "stateMutability": "view",
      "type": "function"
    },
    {
      "inputs": [
        {
          "internalType": "address",
          "name": "from",
          "type": "address"
        },
        {
          "internalType": "address",
          "name": "to",
          "type": "address"
        },
        {
          "internalType": "uint256",
          "name": "tokenId",
          "type": "uint256"
        }
      ],
      "name": "transferFrom",
      "outputs": [],
      "stateMutability": "nonpayable",
      "type": "function"
    },
    {
      "inputs": [
        {
          "internalType": "address",
          "name": "newOwner",
          "type": "address"
        }
      ],
      "name": "transferOwnership",
      "outputs": [],
      "stateMutability": "nonpayable",
      "type": "function"
    }
  ],
  "bytecode": "0x60806040523480156200001157600080fd5b506040518060400160405280600881526020017f43617073746f6e650000000000000000000000000000000000000000000000008152506040518060400160405280600381526020017f4e46540000000000000000000000000000000000000000000000000000000000815250816000908051906020019062000096929190620001a6565b508060019080519060200190620000af929190620001a6565b505050620000d2620000c6620000d860201b60201c565b620000e060201b60201c565b620002bb565b600033905090565b6000600b60009054906101000a900473ffffffffffffffffffffffffffffffffffffffff16905081600b60006101000a81548173ffffffffffffffffffffffffffffffffffffffff021916908373ffffffffffffffffffffffffffffffffffffffff1602179055508173ffffffffffffffffffffffffffffffffffffffff168173ffffffffffffffffffffffffffffffffffffffff167f8be0079c531659141344cd1fd0a4f28419497f9722a3daafe3b4186f6b6457e060405160405180910390a35050565b828054620001b49062000256565b90600052602060002090601f016020900481019282620001d8576000855562000224565b82601f10620001f357805160ff191683800117855562000224565b8280016001018555821562000224579182015b828111156200022357825182559160200191906001019062000206565b5b50905062000233919062000237565b5090565b5b808211156200025257600081600090555060010162000238565b5090565b600060028204905060018216806200026f57607f821691505b602082108114156200028657620002856200028c565b5b50919050565b7f4e487b7100000000000000000000000000000000000000000000000000000000600052602260045260246000fd5b613b2480620002cb6000396000f3fe608060405234801561001057600080fd5b506004361061014d5760003560e01c806370a08231116100c3578063c75458491161007c578063c75458491461039c578063c87b56dd146103cc578063e985e9c5146103fc578063ecbde5e61461042c578063f2fde38b1461044a578063f7c8af48146104665761014d565b806370a08231146102ee578063715018a61461031e5780638da5cb5b1461032857806395d89b4114610346578063a22cb46514610364578063b88d4fde146103805761014d565b806323b872dd1161011557806323b872dd1461020a5780632f745c59146102265780633ecfdcaf1461025657806342842e0e146102725780634f6ccce71461028e5780636352211e146102be5761014d565b806301ffc9a71461015257806306fdde0314610182578063081812fc146101a0578063095ea7b3146101d057806318160ddd146101ec575b600080fd5b61016c60048036038101906101679190612a85565b610482565b60405161017991906133fc565b60405180910390f35b61018a610494565b6040516101979190613417565b60405180910390f35b6101ba60048036038101906101b59190612b18565b610526565b6040516101c79190613395565b60405180910390f35b6101ea60048036038101906101e59190612a49565b6105ab565b005b6101f46106c3565b60405161020191906136b9565b60405180910390f35b610224600480360381019061021f9190612943565b6106d0565b005b610240600480360381019061023b9190612a49565b610730565b60405161024d91906136b9565b60405180910390f35b610270600480360381019061026b9190612a49565b6107d5565b005b61028c60048036038101906102879190612943565b61086a565b005b6102a860048036038101906102a39190612b18565b61088a565b6040516102b591906136b9565b60405180910390f35b6102d860048036038101906102d39190612b18565b610921565b6040516102e59190613395565b60405180910390f35b610308600480360381019061030391906128de565b6109d3565b60405161031591906136b9565b60405180910390f35b610326610a8b565b005b610330610b13565b60405161033d9190613395565b60405180910390f35b61034e610b3d565b60405161035b9190613417565b60405180910390f35b61037e60048036038101906103799190612a0d565b610bcf565b005b61039a60048036038101906103959190612992565b610be5565b005b6103b660048036038101906103b19190612ad7565b610c47565b6040516103c391906136b9565b60405180910390f35b6103e660048036038101906103e19190612b18565b610cfa565b6040516103f39190613417565b60405180910390f35b61041660048036038101906104119190612907565b610d88565b60405161042391906133fc565b60405180910390f35b610434610e1c565b60405161044191906136b9565b60405180910390f35b610464600480360381019061045f91906128de565b610ea8565b005b610480600480360381019061047b9190612b18565b610fa0565b005b600061048d82611028565b9050919050565b6060600080546104a390613919565b80601f01602080910402602001604051908101604052809291908181526020018280546104cf90613919565b801561051c5780601f106104f15761010080835404028352916020019161051c565b820191906000526020600020905b8154815290600101906020018083116104ff57829003601f168201915b5050505050905090565b6000610531826110a2565b610570576040517f08c379a0000000000000000000000000000000000000000000000000000000008152600401610567906135d9565b60405180910390fd5b6004600083815260200190815260200160002060009054906101000a900473ffffffffffffffffffffffffffffffffffffffff169050919050565b60006105b682610921565b90508073ffffffffffffffffffffffffffffffffffffffff168373ffffffffffffffffffffffffffffffffffffffff161415610627576040517f08c379a000000000000000000000000000000000000000000000000000000000815260040161061e90613659565b60405180910390fd5b8073ffffffffffffffffffffffffffffffffffffffff1661064661110e565b73ffffffffffffffffffffffffffffffffffffffff16148061067557506106748161066f61110e565b610d88565b5b6106b4576040517f08c379a00000000000000000000000000000000000000000000000000000000081526004016106ab90613519565b60405180910390fd5b6106be8383611116565b505050565b6000600880549050905090565b6106e16106db61110e565b826111cf565b610720576040517f08c379a000000000000000000000000000000000000000000000000000000000815260040161071790613679565b60405180910390fd5b61072b8383836112ad565b505050565b600061073b836109d3565b821061077c576040517f08c379a000000000000000000000000000000000000000000000000000000000815260040161077390613439565b60405180910390fd5b600660008473ffffffffffffffffffffffffffffffffffffffff1673ffffffffffffffffffffffffffffffffffffffff168152602001908152602001600020600083815260200190815260200160002054905092915050565b6107dd61110e565b73ffffffffffffffffffffffffffffffffffffffff166107fb610b13565b73ffffffffffffffffffffffffffffffffffffffff1614610851576040517f08c379a0000000000000000000000000000000000000000000000000000000008152600401610848906135f9565b60405180910390fd5b61085b82826105ab565b6108663383836106d0565b5050565b61088583838360405180602001604052806000815250610be5565b505050565b60006108946106c3565b82106108d5576040517f08c379a00000000000000000000000000000000000000000000000000000000081526004016108cc90613699565b60405180910390fd5b6008828154811061090f577f4e487b7100000000000000000000000000000000000000000000000000000000600052603260045260246000fd5b90600052602060002001549050919050565b6000806002600084815260200190815260200160002060009054906101000a900473ffffffffffffffffffffffffffffffffffffffff169050600073ffffffffffffffffffffffffffffffffffffffff168173ffffffffffffffffffffffffffffffffffffffff1614156109ca576040517f08c379a00000000000000000000000000000000000000000000000000000000081526004016109c190613559565b60405180910390fd5b80915050919050565b60008073ffffffffffffffffffffffffffffffffffffffff168273ffffffffffffffffffffffffffffffffffffffff161415610a44576040517f08c379a0000000000000000000000000000000000000000000000000000000008152600401610a3b90613539565b60405180910390fd5b600360008373ffffffffffffffffffffffffffffffffffffffff1673ffffffffffffffffffffffffffffffffffffffff168152602001908152602001600020549050919050565b610a9361110e565b73ffffffffffffffffffffffffffffffffffffffff16610ab1610b13565b73ffffffffffffffffffffffffffffffffffffffff1614610b07576040517f08c379a0000000000000000000000000000000000000000000000000000000008152600401610afe906135f9565b60405180910390fd5b610b116000611509565b565b6000600b60009054906101000a900473ffffffffffffffffffffffffffffffffffffffff16905090565b606060018054610b4c90613919565b80601f0160208091040260200160405190810160405280929190818152602001828054610b7890613919565b8015610bc55780601f10610b9a57610100808354040283529160200191610bc5565b820191906000526020600020905b815481529060010190602001808311610ba857829003601f168201915b5050505050905090565b610be1610bda61110e565b83836115cf565b5050565b610bf6610bf061110e565b836111cf565b610c35576040517f08c379a0000000000000000000000000000000000000000000000000000000008152600401610c2c90613679565b60405180910390fd5b610c418484848461173c565b50505050565b6000610c5161110e565b73ffffffffffffffffffffffffffffffffffffffff16610c6f610b13565b73ffffffffffffffffffffffffffffffffffffffff1614610cc5576040517f08c379a0000000000000000000000000000000000000000000000000000000008152600401610cbc906135f9565b60405180910390fd5b610ccf600c611798565b6000610cdb600c6117ae565b9050610ce733826117bc565b610cf1818461198a565b80915050919050565b6060610d0461110e565b73ffffffffffffffffffffffffffffffffffffffff16610d22610b13565b73ffffffffffffffffffffffffffffffffffffffff1614610d78576040517f08c379a0000000000000000000000000000000000000000000000000000000008152600401610d6f906135f9565b60405180910390fd5b610d81826119fe565b9050919050565b6000600560008473ffffffffffffffffffffffffffffffffffffffff1673ffffffffffffffffffffffffffffffffffffffff16815260200190815260200160002060008373ffffffffffffffffffffffffffffffffffffffff1673ffffffffffffffffffffffffffffffffffffffff16815260200190815260200160002060009054906101000a900460ff16905092915050565b6000610e2661110e565b73ffffffffffffffffffffffffffffffffffffffff16610e44610b13565b73ffffffffffffffffffffffffffffffffffffffff1614610e9a576040517f08c379a0000000000000000000000000000000000000000000000000000000008152600401610e91906135f9565b60405180910390fd5b610ea3336109d3565b905090565b610eb061110e565b73ffffffffffffffffffffffffffffffffffffffff16610ece610b13565b73ffffffffffffffffffffffffffffffffffffffff1614610f24576040517f08c379a0000000000000000000000000000000000000000000000000000000008152600401610f1b906135f9565b60405180910390fd5b600073ffffffffffffffffffffffffffffffffffffffff168173ffffffffffffffffffffffffffffffffffffffff161415610f94576040517f08c379a0000000000000000000000000000000000000000000000000000000008152600401610f8b90613479565b60405180910390fd5b610f9d81611509565b50565b610fa861110e565b73ffffffffffffffffffffffffffffffffffffffff16610fc6610b13565b73ffffffffffffffffffffffffffffffffffffffff161461101c576040517f08c379a0000000000000000000000000000000000000000000000000000000008152600401611013906135f9565b60405180910390fd5b61102581611b50565b50565b60007f780e9d63000000000000000000000000000000000000000000000000000000007bffffffffffffffffffffffffffffffffffffffffffffffffffffffff1916827bffffffffffffffffffffffffffffffffffffffffffffffffffffffff1916148061109b575061109a82611b5c565b5b9050919050565b60008073ffffffffffffffffffffffffffffffffffffffff166002600084815260200190815260200160002060009054906101000a900473ffffffffffffffffffffffffffffffffffffffff1673ffffffffffffffffffffffffffffffffffffffff1614159050919050565b600033905090565b816004600083815260200190815260200160002060006101000a81548173ffffffffffffffffffffffffffffffffffffffff021916908373ffffffffffffffffffffffffffffffffffffffff160217905550808273ffffffffffffffffffffffffffffffffffffffff1661118983610921565b73ffffffffffffffffffffffffffffffffffffffff167f8c5be1e5ebec7d5bd14f71427d1e84f3dd0314c0f7b2291e5b200ac8c7c3b92560405160405180910390a45050565b60006111da826110a2565b611219576040517f08c379a0000000000000000000000000000000000000000000000000000000008152600401611210906134f9565b60405180910390fd5b600061122483610921565b90508073ffffffffffffffffffffffffffffffffffffffff168473ffffffffffffffffffffffffffffffffffffffff16148061129357508373ffffffffffffffffffffffffffffffffffffffff1661127b84610526565b73ffffffffffffffffffffffffffffffffffffffff16145b806112a457506112a38185610d88565b5b91505092915050565b8273ffffffffffffffffffffffffffffffffffffffff166112cd82610921565b73ffffffffffffffffffffffffffffffffffffffff1614611323576040517f08c379a000000000000000000000000000000000000000000000000000000000815260040161131a90613619565b60405180910390fd5b600073ffffffffffffffffffffffffffffffffffffffff168273ffffffffffffffffffffffffffffffffffffffff161415611393576040517f08c379a000000000000000000000000000000000000000000000000000000000815260040161138a906134b9565b60405180910390fd5b61139e838383611c3e565b6113a9600082611116565b6001600360008573ffffffffffffffffffffffffffffffffffffffff1673ffffffffffffffffffffffffffffffffffffffff16815260200190815260200160002060008282546113f9919061382f565b925050819055506001600360008473ffffffffffffffffffffffffffffffffffffffff1673ffffffffffffffffffffffffffffffffffffffff168152602001908152602001600020600082825461145091906137a8565b92505081905550816002600083815260200190815260200160002060006101000a81548173ffffffffffffffffffffffffffffffffffffffff021916908373ffffffffffffffffffffffffffffffffffffffff160217905550808273ffffffffffffffffffffffffffffffffffffffff168473ffffffffffffffffffffffffffffffffffffffff167fddf252ad1be2c89b69c2b068fc378daa952ba7f163c4a11628f55a4df523b3ef60405160405180910390a4505050565b6000600b60009054906101000a900473ffffffffffffffffffffffffffffffffffffffff16905081600b60006101000a81548173ffffffffffffffffffffffffffffffffffffffff021916908373ffffffffffffffffffffffffffffffffffffffff1602179055508173ffffffffffffffffffffffffffffffffffffffff168173ffffffffffffffffffffffffffffffffffffffff167f8be0079c531659141344cd1fd0a4f28419497f9722a3daafe3b4186f6b6457e060405160405180910390a35050565b8173ffffffffffffffffffffffffffffffffffffffff168373ffffffffffffffffffffffffffffffffffffffff16141561163e576040517f08c379a0000000000000000000000000000000000000000000000000000000008152600401611635906134d9565b60405180910390fd5b80600560008573ffffffffffffffffffffffffffffffffffffffff1673ffffffffffffffffffffffffffffffffffffffff16815260200190815260200160002060008473ffffffffffffffffffffffffffffffffffffffff1673ffffffffffffffffffffffffffffffffffffffff16815260200190815260200160002060006101000a81548160ff0219169083151502179055508173ffffffffffffffffffffffffffffffffffffffff168373ffffffffffffffffffffffffffffffffffffffff167f17307eab39ab6107e8899845ad3d59bd9653f200f220920489ca2b5937696c318360405161172f91906133fc565b60405180910390a3505050565b6117478484846112ad565b61175384848484611c4e565b611792576040517f08c379a000000000000000000000000000000000000000000000000000000000815260040161178990613459565b60405180910390fd5b50505050565b6001816000016000828254019250508190555050565b600081600001549050919050565b600073ffffffffffffffffffffffffffffffffffffffff168273ffffffffffffffffffffffffffffffffffffffff16141561182c576040517f08c379a000000000000000000000000000000000000000000000000000000000815260040161182390613599565b60405180910390fd5b611835816110a2565b15611875576040517f08c379a000000000000000000000000000000000000000000000000000000000815260040161186c90613499565b60405180910390fd5b61188160008383611c3e565b6001600360008473ffffffffffffffffffffffffffffffffffffffff1673ffffffffffffffffffffffffffffffffffffffff16815260200190815260200160002060008282546118d191906137a8565b92505081905550816002600083815260200190815260200160002060006101000a81548173ffffffffffffffffffffffffffffffffffffffff021916908373ffffffffffffffffffffffffffffffffffffffff160217905550808273ffffffffffffffffffffffffffffffffffffffff16600073ffffffffffffffffffffffffffffffffffffffff167fddf252ad1be2c89b69c2b068fc378daa952ba7f163c4a11628f55a4df523b3ef60405160405180910390a45050565b611993826110a2565b6119d2576040517f08c379a00000000000000000000000000000000000000000000000000000000081526004016119c990613579565b60405180910390fd5b80600a600084815260200190815260200160002090805190602001906119f99291906126c2565b505050565b6060611a09826110a2565b611a48576040517f08c379a0000000000000000000000000000000000000000000000000000000008152600401611a3f906135b9565b60405180910390fd5b6000600a60008481526020019081526020016000208054611a6890613919565b80601f0160208091040260200160405190810160405280929190818152602001828054611a9490613919565b8015611ae15780601f10611ab657610100808354040283529160200191611ae1565b820191906000526020600020905b815481529060010190602001808311611ac457829003601f168201915b505050505090506000611af2611de5565b9050600081511415611b08578192505050611b4b565b600082511115611b3d578082604051602001611b25929190613371565b60405160208183030381529060405292505050611b4b565b611b4684611dfc565b925050505b919050565b611b5981611ea3565b50565b60007f80ac58cd000000000000000000000000000000000000000000000000000000007bffffffffffffffffffffffffffffffffffffffffffffffffffffffff1916827bffffffffffffffffffffffffffffffffffffffffffffffffffffffff19161480611c2757507f5b5e139f000000000000000000000000000000000000000000000000000000007bffffffffffffffffffffffffffffffffffffffffffffffffffffffff1916827bffffffffffffffffffffffffffffffffffffffffffffffffffffffff1916145b80611c375750611c3682611ef6565b5b9050919050565b611c49838383611f60565b505050565b6000611c6f8473ffffffffffffffffffffffffffffffffffffffff16612074565b15611dd8578373ffffffffffffffffffffffffffffffffffffffff1663150b7a02611c9861110e565b8786866040518563ffffffff1660e01b8152600401611cba94939291906133b0565b602060405180830381600087803b158015611cd457600080fd5b505af1925050508015611d0557506040513d601f19601f82011682018060405250810190611d029190612aae565b60015b611d88573d8060008114611d35576040519150601f19603f3d011682016040523d82523d6000602084013e611d3a565b606091505b50600081511415611d80576040517f08c379a0000000000000000000000000000000000000000000000000000000008152600401611d7790613459565b60405180910390fd5b805181602001fd5b63150b7a0260e01b7bffffffffffffffffffffffffffffffffffffffffffffffffffffffff1916817bffffffffffffffffffffffffffffffffffffffffffffffffffffffff191614915050611ddd565b600190505b949350505050565b606060405180602001604052806000815250905090565b6060611e07826110a2565b611e46576040517f08c379a0000000000000000000000000000000000000000000000000000000008152600401611e3d90613639565b60405180910390fd5b6000611e50611de5565b90506000815111611e705760405180602001604052806000815250611e9b565b80611e7a84612087565b604051602001611e8b929190613371565b6040516020818303038152906040525b915050919050565b611eac81612234565b6000600a60008381526020019081526020016000208054611ecc90613919565b905014611ef357600a60008281526020019081526020016000206000611ef29190612748565b5b50565b60007f01ffc9a7000000000000000000000000000000000000000000000000000000007bffffffffffffffffffffffffffffffffffffffffffffffffffffffff1916827bffffffffffffffffffffffffffffffffffffffffffffffffffffffff1916149050919050565b611f6b838383612345565b600073ffffffffffffffffffffffffffffffffffffffff168373ffffffffffffffffffffffffffffffffffffffff161415611fae57611fa98161234a565b611fed565b8173ffffffffffffffffffffffffffffffffffffffff168373ffffffffffffffffffffffffffffffffffffffff1614611fec57611feb8382612393565b5b5b600073ffffffffffffffffffffffffffffffffffffffff168273ffffffffffffffffffffffffffffffffffffffff1614156120305761202b81612500565b61206f565b8273ffffffffffffffffffffffffffffffffffffffff168273ffffffffffffffffffffffffffffffffffffffff161461206e5761206d8282612643565b5b5b505050565b600080823b905060008111915050919050565b606060008214156120cf576040518060400160405280600181526020017f3000000000000000000000000000000000000000000000000000000000000000815250905061222f565b600082905060005b600082146121015780806120ea9061394b565b915050600a826120fa91906137fe565b91506120d7565b60008167ffffffffffffffff811115612143577f4e487b7100000000000000000000000000000000000000000000000000000000600052604160045260246000fd5b6040519080825280601f01601f1916602001820160405280156121755781602001600182028036833780820191505090505b5090505b600085146122285760018261218e919061382f565b9150600a8561219d9190613994565b60306121a991906137a8565b60f81b8183815181106121e5577f4e487b7100000000000000000000000000000000000000000000000000000000600052603260045260246000fd5b60200101907effffffffffffffffffffffffffffffffffffffffffffffffffffffffffffff1916908160001a905350600a8561222191906137fe565b9450612179565b8093505050505b919050565b600061223f82610921565b905061224d81600084611c3e565b612258600083611116565b6001600360008373ffffffffffffffffffffffffffffffffffffffff1673ffffffffffffffffffffffffffffffffffffffff16815260200190815260200160002060008282546122a8919061382f565b925050819055506002600083815260200190815260200160002060006101000a81549073ffffffffffffffffffffffffffffffffffffffff021916905581600073ffffffffffffffffffffffffffffffffffffffff168273ffffffffffffffffffffffffffffffffffffffff167fddf252ad1be2c89b69c2b068fc378daa952ba7f163c4a11628f55a4df523b3ef60405160405180910390a45050565b505050565b6008805490506009600083815260200190815260200160002081905550600881908060018154018082558091505060019003906000526020600020016000909190919091505550565b600060016123a0846109d3565b6123aa919061382f565b905060006007600084815260200190815260200160002054905081811461248f576000600660008673ffffffffffffffffffffffffffffffffffffffff1673ffffffffffffffffffffffffffffffffffffffff168152602001908152602001600020600084815260200190815260200160002054905080600660008773ffffffffffffffffffffffffffffffffffffffff1673ffffffffffffffffffffffffffffffffffffffff168152602001908152602001600020600084815260200190815260200160002081905550816007600083815260200190815260200160002081905550505b6007600084815260200190815260200160002060009055600660008573ffffffffffffffffffffffffffffffffffffffff1673ffffffffffffffffffffffffffffffffffffffff16815260200190815260200160002060008381526020019081526020016000206000905550505050565b60006001600880549050612514919061382f565b905060006009600084815260200190815260200160002054905060006008838154811061256a577f4e487b7100000000000000000000000000000000000000000000000000000000600052603260045260246000fd5b9060005260206000200154905080600883815481106125b2577f4e487b7100000000000000000000000000000000000000000000000000000000600052603260045260246000fd5b906000526020600020018190555081600960008381526020019081526020016000208190555060096000858152602001908152602001600020600090556008805480612627577f4e487b7100000000000000000000000000000000000000000000000000000000600052603160045260246000fd5b6001900381819060005260206000200160009055905550505050565b600061264e836109d3565b905081600660008573ffffffffffffffffffffffffffffffffffffffff1673ffffffffffffffffffffffffffffffffffffffff168152602001908152602001600020600083815260200190815260200160002081905550806007600084815260200190815260200160002081905550505050565b8280546126ce90613919565b90600052602060002090601f0160209004810192826126f05760008555612737565b82601f1061270957805160ff1916838001178555612737565b82800160010185558215612737579182015b8281111561273657825182559160200191906001019061271b565b5b5090506127449190612788565b5090565b50805461275490613919565b6000825580601f106127665750612785565b601f0160209004906000526020600020908101906127849190612788565b5b50565b5b808211156127a1576000816000905550600101612789565b5090565b60006127b86127b384613705565b6136d4565b9050828152602081018484840111156127d057600080fd5b6127db8482856138d7565b509392505050565b60006127f66127f184613735565b6136d4565b90508281526020810184848401111561280e57600080fd5b6128198482856138d7565b509392505050565b60008135905061283081613a92565b92915050565b60008135905061284581613aa9565b92915050565b60008135905061285a81613ac0565b92915050565b60008151905061286f81613ac0565b92915050565b600082601f83011261288657600080fd5b81356128968482602086016127a5565b91505092915050565b600082601f8301126128b057600080fd5b81356128c08482602086016127e3565b91505092915050565b6000813590506128d881613ad7565b92915050565b6000602082840312156128f057600080fd5b60006128fe84828501612821565b91505092915050565b6000806040838503121561291a57600080fd5b600061292885828601612821565b925050602061293985828601612821565b9150509250929050565b60008060006060848603121561295857600080fd5b600061296686828701612821565b935050602061297786828701612821565b9250506040612988868287016128c9565b9150509250925092565b600080600080608085870312156129a857600080fd5b60006129b687828801612821565b94505060206129c787828801612821565b93505060406129d8878288016128c9565b925050606085013567ffffffffffffffff8111156129f557600080fd5b612a0187828801612875565b91505092959194509250565b60008060408385031215612a2057600080fd5b6000612a2e85828601612821565b9250506020612a3f85828601612836565b9150509250929050565b60008060408385031215612a5c57600080fd5b6000612a6a85828601612821565b9250506020612a7b858286016128c9565b9150509250929050565b600060208284031215612a9757600080fd5b6000612aa58482850161284b565b91505092915050565b600060208284031215612ac057600080fd5b6000612ace84828501612860565b91505092915050565b600060208284031215612ae957600080fd5b600082013567ffffffffffffffff811115612b0357600080fd5b612b0f8482850161289f565b91505092915050565b600060208284031215612b2a57600080fd5b6000612b38848285016128c9565b91505092915050565b612b4a81613863565b82525050565b612b5981613875565b82525050565b6000612b6a82613765565b612b74818561377b565b9350612b848185602086016138e6565b612b8d81613a81565b840191505092915050565b6000612ba382613770565b612bad818561378c565b9350612bbd8185602086016138e6565b612bc681613a81565b840191505092915050565b6000612bdc82613770565b612be6818561379d565b9350612bf68185602086016138e6565b80840191505092915050565b6000612c0f602b8361378c565b91507f455243373231456e756d657261626c653a206f776e657220696e646578206f7560008301527f74206f6620626f756e64730000000000000000000000000000000000000000006020830152604082019050919050565b6000612c7560328361378c565b91507f4552433732313a207472616e7366657220746f206e6f6e20455243373231526560008301527f63656976657220696d706c656d656e74657200000000000000000000000000006020830152604082019050919050565b6000612cdb60268361378c565b91507f4f776e61626c653a206e6577206f776e657220697320746865207a65726f206160008301527f64647265737300000000000000000000000000000000000000000000000000006020830152604082019050919050565b6000612d41601c8361378c565b91507f4552433732313a20746f6b656e20616c7265616479206d696e746564000000006000830152602082019050919050565b6000612d8160248361378c565b91507f4552433732313a207472616e7366657220746f20746865207a65726f2061646460008301527f72657373000000000000000000000000000000000000000000000000000000006020830152604082019050919050565b6000612de760198361378c565b91507f4552433732313a20617070726f766520746f2063616c6c6572000000000000006000830152602082019050919050565b6000612e27602c8361378c565b91507f4552433732313a206f70657261746f7220717565727920666f72206e6f6e657860008301527f697374656e7420746f6b656e00000000000000000000000000000000000000006020830152604082019050919050565b6000612e8d60388361378c565b91507f4552433732313a20617070726f76652063616c6c6572206973206e6f74206f7760008301527f6e6572206e6f7220617070726f76656420666f7220616c6c00000000000000006020830152604082019050919050565b6000612ef3602a8361378c565b91507f4552433732313a2062616c616e636520717565727920666f7220746865207a6560008301527f726f2061646472657373000000000000000000000000000000000000000000006020830152604082019050919050565b6000612f5960298361378c565b91507f4552433732313a206f776e657220717565727920666f72206e6f6e657869737460008301527f656e7420746f6b656e00000000000000000000000000000000000000000000006020830152604082019050919050565b6000612fbf602e8361378c565b91507f45524337323155524953746f726167653a2055524920736574206f66206e6f6e60008301527f6578697374656e7420746f6b656e0000000000000000000000000000000000006020830152604082019050919050565b600061302560208361378c565b91507f4552433732313a206d696e7420746f20746865207a65726f20616464726573736000830152602082019050919050565b600061306560318361378c565b91507f45524337323155524953746f726167653a2055524920717565727920666f722060008301527f6e6f6e6578697374656e7420746f6b656e0000000000000000000000000000006020830152604082019050919050565b60006130cb602c8361378c565b91507f4552433732313a20617070726f76656420717565727920666f72206e6f6e657860008301527f697374656e7420746f6b656e00000000000000000000000000000000000000006020830152604082019050919050565b600061313160208361378c565b91507f4f776e61626c653a2063616c6c6572206973206e6f7420746865206f776e65726000830152602082019050919050565b600061317160298361378c565b91507f4552433732313a207472616e73666572206f6620746f6b656e2074686174206960008301527f73206e6f74206f776e00000000000000000000000000000000000000000000006020830152604082019050919050565b60006131d7602f8361378c565b91507f4552433732314d657461646174613a2055524920717565727920666f72206e6f60008301527f6e6578697374656e7420746f6b656e00000000000000000000000000000000006020830152604082019050919050565b600061323d60218361378c565b91507f4552433732313a20617070726f76616c20746f2063757272656e74206f776e6560008301527f72000000000000000000000000000000000000000000000000000000000000006020830152604082019050919050565b60006132a360318361378c565b91507f4552433732313a207472616e736665722063616c6c6572206973206e6f74206f60008301527f776e6572206e6f7220617070726f7665640000000000000000000000000000006020830152604082019050919050565b6000613309602c8361378c565b91507f455243373231456e756d657261626c653a20676c6f62616c20696e646578206f60008301527f7574206f6620626f756e647300000000000000000000000000000000000000006020830152604082019050919050565b61336b816138cd565b82525050565b600061337d8285612bd1565b91506133898284612bd1565b91508190509392505050565b60006020820190506133aa6000830184612b41565b92915050565b60006080820190506133c56000830187612b41565b6133d26020830186612b41565b6133df6040830185613362565b81810360608301526133f18184612b5f565b905095945050505050565b60006020820190506134116000830184612b50565b92915050565b600060208201905081810360008301526134318184612b98565b905092915050565b6000602082019050818103600083015261345281612c02565b9050919050565b6000602082019050818103600083015261347281612c68565b9050919050565b6000602082019050818103600083015261349281612cce565b9050919050565b600060208201905081810360008301526134b281612d34565b9050919050565b600060208201905081810360008301526134d281612d74565b9050919050565b600060208201905081810360008301526134f281612dda565b9050919050565b6000602082019050818103600083015261351281612e1a565b9050919050565b6000602082019050818103600083015261353281612e80565b9050919050565b6000602082019050818103600083015261355281612ee6565b9050919050565b6000602082019050818103600083015261357281612f4c565b9050919050565b6000602082019050818103600083015261359281612fb2565b9050919050565b600060208201905081810360008301526135b281613018565b9050919050565b600060208201905081810360008301526135d281613058565b9050919050565b600060208201905081810360008301526135f2816130be565b9050919050565b6000602082019050818103600083015261361281613124565b9050919050565b6000602082019050818103600083015261363281613164565b9050919050565b60006020820190508181036000830152613652816131ca565b9050919050565b6000602082019050818103600083015261367281613230565b9050919050565b6000602082019050818103600083015261369281613296565b9050919050565b600060208201905081810360008301526136b2816132fc565b9050919050565b60006020820190506136ce6000830184613362565b92915050565b6000604051905081810181811067ffffffffffffffff821117156136fb576136fa613a52565b5b8060405250919050565b600067ffffffffffffffff8211156137205761371f613a52565b5b601f19601f8301169050602081019050919050565b600067ffffffffffffffff8211156137505761374f613a52565b5b601f19601f8301169050602081019050919050565b600081519050919050565b600081519050919050565b600082825260208201905092915050565b600082825260208201905092915050565b600081905092915050565b60006137b3826138cd565b91506137be836138cd565b9250827fffffffffffffffffffffffffffffffffffffffffffffffffffffffffffffffff038211156137f3576137f26139c5565b5b828201905092915050565b6000613809826138cd565b9150613814836138cd565b925082613824576138236139f4565b5b828204905092915050565b600061383a826138cd565b9150613845836138cd565b925082821015613858576138576139c5565b5b828203905092915050565b600061386e826138ad565b9050919050565b60008115159050919050565b60007fffffffff0000000000000000000000000000000000000000000000000000000082169050919050565b600073ffffffffffffffffffffffffffffffffffffffff82169050919050565b6000819050919050565b82818337600083830152505050565b60005b838110156139045780820151818401526020810190506138e9565b83811115613913576000848401525b50505050565b6000600282049050600182168061393157607f821691505b6020821081141561394557613944613a23565b5b50919050565b6000613956826138cd565b91507fffffffffffffffffffffffffffffffffffffffffffffffffffffffffffffffff821415613989576139886139c5565b5b600182019050919050565b600061399f826138cd565b91506139aa836138cd565b9250826139ba576139b96139f4565b5b828206905092915050565b7f4e487b7100000000000000000000000000000000000000000000000000000000600052601160045260246000fd5b7f4e487b7100000000000000000000000000000000000000000000000000000000600052601260045260246000fd5b7f4e487b7100000000000000000000000000000000000000000000000000000000600052602260045260246000fd5b7f4e487b7100000000000000000000000000000000000000000000000000000000600052604160045260246000fd5b6000601f19601f8301169050919050565b613a9b81613863565b8114613aa657600080fd5b50565b613ab281613875565b8114613abd57600080fd5b50565b613ac981613881565b8114613ad457600080fd5b50565b613ae0816138cd565b8114613aeb57600080fd5b5056fea2646970667358221220c75208fb1657ea260e61d2dc168e95f592a91d6d38ca1d9dd6e6d15658bd235064736f6c63430008000033",
  "linkReferences": {},
  "deployedLinkReferences": {}
}