{
  "_format": "hh-sol-artifact-1",
  "contractName": "Diamond",
  "sourceName": "contracts/Diamond.sol",
  "abi": [
    {
      "inputs": [
        {
          "internalType": "string",
          "name": "image",
          "type": "string"
        },
        {
          "internalType": "string",
          "name": "name",
          "type": "string"
        },
        {
          "internalType": "string",
          "name": "company",
          "type": "string"
        }
      ],
      "stateMutability": "payable",
      "type": "constructor"
    },
    {
      "anonymous": false,
      "inputs": [
        {
          "indexed": true,
          "internalType": "address",
          "name": "owner",
          "type": "address"
        },
        {
          "indexed": true,
          "internalType": "uint256",
          "name": "price",
          "type": "uint256"
        }
      ],
      "name": "UpdateHistory",
      "type": "event"
    },
    {
      "inputs": [],
      "name": "checkoutPayment",
      "outputs": [],
      "stateMutability": "payable",
      "type": "function"
    },
    {
      "inputs": [],
      "name": "deposit",
      "outputs": [],
      "stateMutability": "payable",
      "type": "function"
    },
    {
      "inputs": [],
      "name": "diamondData",
      "outputs": [
        {
          "internalType": "address",
          "name": "diamondId",
          "type": "address"
        },
        {
          "internalType": "string",
          "name": "image",
          "type": "string"
        },
        {
          "internalType": "string",
          "name": "name",
          "type": "string"
        },
        {
          "internalType": "string",
          "name": "company",
          "type": "string"
        }
      ],
      "stateMutability": "view",
      "type": "function"
    },
    {
      "inputs": [
        {
          "internalType": "uint256",
          "name": "",
          "type": "uint256"
        }
      ],
      "name": "histories",
      "outputs": [
        {
          "internalType": "address",
          "name": "ownerAddress",
          "type": "address"
        },
        {
          "internalType": "uint256",
          "name": "price",
          "type": "uint256"
        }
      ],
      "stateMutability": "view",
      "type": "function"
    },
    {
      "inputs": [],
      "name": "lookupDiamondData",
      "outputs": [
        {
          "components": [
            {
              "internalType": "address",
              "name": "diamondId",
              "type": "address"
            },
            {
              "internalType": "string",
              "name": "image",
              "type": "string"
            },
            {
              "internalType": "string",
              "name": "name",
              "type": "string"
            },
            {
              "internalType": "string",
              "name": "company",
              "type": "string"
            }
          ],
          "internalType": "struct Diamond.DiamondData",
          "name": "",
          "type": "tuple"
        },
        {
          "internalType": "address",
          "name": "",
          "type": "address"
        }
      ],
      "stateMutability": "view",
      "type": "function"
    },
    {
      "inputs": [],
      "name": "lookupHistories",
      "outputs": [
        {
          "components": [
            {
              "internalType": "address",
              "name": "ownerAddress",
              "type": "address"
            },
            {
              "internalType": "uint256",
              "name": "price",
              "type": "uint256"
            }
          ],
          "internalType": "struct Diamond.History[]",
          "name": "",
          "type": "tuple[]"
        }
      ],
      "stateMutability": "view",
      "type": "function"
    },
    {
      "inputs": [],
      "name": "lookupReceipts",
      "outputs": [
        {
          "components": [
            {
              "internalType": "address",
              "name": "clientWallet",
              "type": "address"
            },
            {
              "internalType": "address",
              "name": "diamondId",
              "type": "address"
            },
            {
              "internalType": "string",
              "name": "clientName",
              "type": "string"
            },
            {
              "internalType": "string",
              "name": "status",
              "type": "string"
            },
            {
              "internalType": "uint256",
              "name": "price",
              "type": "uint256"
            }
          ],
          "internalType": "struct Diamond.Receipt",
          "name": "",
          "type": "tuple"
        }
      ],
      "stateMutability": "view",
      "type": "function"
    },
    {
      "inputs": [],
      "name": "notPayable",
      "outputs": [],
      "stateMutability": "nonpayable",
      "type": "function"
    },
    {
      "inputs": [],
      "name": "owner",
      "outputs": [
        {
          "internalType": "address payable",
          "name": "",
          "type": "address"
        }
      ],
      "stateMutability": "view",
      "type": "function"
    },
    {
      "inputs": [
        {
          "internalType": "uint256",
          "name": "",
          "type": "uint256"
        }
      ],
      "name": "receipts",
      "outputs": [
        {
          "internalType": "address",
          "name": "clientWallet",
          "type": "address"
        },
        {
          "internalType": "address",
          "name": "diamondId",
          "type": "address"
        },
        {
          "internalType": "string",
          "name": "clientName",
          "type": "string"
        },
        {
          "internalType": "string",
          "name": "status",
          "type": "string"
        },
        {
          "internalType": "uint256",
          "name": "price",
          "type": "uint256"
        }
      ],
      "stateMutability": "view",
      "type": "function"
    },
    {
      "inputs": [
        {
          "internalType": "address",
          "name": "ownerAddress",
          "type": "address"
        },
        {
          "internalType": "uint256",
          "name": "price",
          "type": "uint256"
        }
      ],
      "name": "updateHistory",
      "outputs": [],
      "stateMutability": "nonpayable",
      "type": "function"
    },
    {
      "inputs": [
        {
          "internalType": "string",
          "name": "clientName",
          "type": "string"
        },
        {
          "internalType": "uint256",
          "name": "price",
          "type": "uint256"
        }
      ],
      "name": "upsertReceipt",
      "outputs": [],
      "stateMutability": "nonpayable",
      "type": "function"
    }
  ],
  "bytecode": "0x6080604052604051620024dc380380620024dc833981810160405281019062000029919062000274565b336000806101000a81548173ffffffffffffffffffffffffffffffffffffffff021916908373ffffffffffffffffffffffffffffffffffffffff16021790555060405180608001604052803073ffffffffffffffffffffffffffffffffffffffff16815260200184815260200183815260200182815250600460008201518160000160006101000a81548173ffffffffffffffffffffffffffffffffffffffff021916908373ffffffffffffffffffffffffffffffffffffffff16021790555060208201518160010190805190602001906200010792919062000152565b5060408201518160020190805190602001906200012692919062000152565b5060608201518160030190805190602001906200014592919062000152565b5090505050505062000446565b8280546200016090620003b2565b90600052602060002090601f016020900481019282620001845760008555620001d0565b82601f106200019f57805160ff1916838001178555620001d0565b82800160010185558215620001d0579182015b82811115620001cf578251825591602001919060010190620001b2565b5b509050620001df9190620001e3565b5090565b5b80821115620001fe576000816000905550600101620001e4565b5090565b600062000219620002138462000349565b62000315565b9050828152602081018484840111156200023257600080fd5b6200023f8482856200037c565b509392505050565b600082601f8301126200025957600080fd5b81516200026b84826020860162000202565b91505092915050565b6000806000606084860312156200028a57600080fd5b600084015167ffffffffffffffff811115620002a557600080fd5b620002b38682870162000247565b935050602084015167ffffffffffffffff811115620002d157600080fd5b620002df8682870162000247565b925050604084015167ffffffffffffffff811115620002fd57600080fd5b6200030b8682870162000247565b9150509250925092565b6000604051905081810181811067ffffffffffffffff821117156200033f576200033e62000417565b5b8060405250919050565b600067ffffffffffffffff82111562000367576200036662000417565b5b601f19601f8301169050602081019050919050565b60005b838110156200039c5780820151818401526020810190506200037f565b83811115620003ac576000848401525b50505050565b60006002820490506001821680620003cb57607f821691505b60208210811415620003e257620003e1620003e8565b5b50919050565b7f4e487b7100000000000000000000000000000000000000000000000000000000600052602260045260246000fd5b7f4e487b7100000000000000000000000000000000000000000000000000000000600052604160045260246000fd5b61208680620004566000396000f3fe6080604052600436106100a75760003560e01c806358b6e1981161006457806358b6e198146101c457806369aea784146101ce578063752b1fda146101fc578063777aff7d146102255780638da5cb5b1461024e578063d0e30db014610279576100a7565b80630f7ee1ec146100ac57806311f84ef1146100ed578063168ea70214610118578063273884bd146101435780633bbd81861461015a57806356564b7c14610186575b600080fd5b3480156100b857600080fd5b506100d360048036038101906100ce91906117e6565b610283565b6040516100e4959493929190611bcf565b60405180910390f35b3480156100f957600080fd5b50610102610419565b60405161010f9190611cb3565b60405180910390f35b34801561012457600080fd5b5061012d6104d8565b60405161013a9190611d85565b60405180910390f35b34801561014f57600080fd5b50610158610828565b005b34801561016657600080fd5b5061016f61082a565b60405161017d929190611d55565b60405180910390f35b34801561019257600080fd5b506101ad60048036038101906101a891906117e6565b610a79565b6040516101bb929190611c8a565b60405180910390f35b6101cc610acd565b005b3480156101da57600080fd5b506101e3610bd5565b6040516101f39493929190611c30565b60405180910390f35b34801561020857600080fd5b50610223600480360381019061021e9190611792565b610dab565b005b34801561023157600080fd5b5061024c60048036038101906102479190611756565b6111fb565b005b34801561025a57600080fd5b50610263611381565b6040516102709190611bb4565b60405180910390f35b6102816113a5565b005b6003818154811061029357600080fd5b90600052602060002090600502016000915090508060000160009054906101000a900473ffffffffffffffffffffffffffffffffffffffff16908060010160009054906101000a900473ffffffffffffffffffffffffffffffffffffffff169080600201805461030290611f09565b80601f016020809104026020016040519081016040528092919081815260200182805461032e90611f09565b801561037b5780601f106103505761010080835404028352916020019161037b565b820191906000526020600020905b81548152906001019060200180831161035e57829003601f168201915b50505050509080600301805461039090611f09565b80601f01602080910402602001604051908101604052809291908181526020018280546103bc90611f09565b80156104095780601f106103de57610100808354040283529160200191610409565b820191906000526020600020905b8154815290600101906020018083116103ec57829003601f168201915b5050505050908060040154905085565b60606002805480602002602001604051908101604052809291908181526020016000905b828210156104cf57838290600052602060002090600202016040518060400160405290816000820160009054906101000a900473ffffffffffffffffffffffffffffffffffffffff1673ffffffffffffffffffffffffffffffffffffffff1673ffffffffffffffffffffffffffffffffffffffff1681526020016001820154815250508152602001906001019061043d565b50505050905090565b6104e0611588565b60008060005b6003805490508110156105ad573373ffffffffffffffffffffffffffffffffffffffff1660038281548110610544577f4e487b7100000000000000000000000000000000000000000000000000000000600052603260045260246000fd5b906000526020600020906005020160000160009054906101000a900473ffffffffffffffffffffffffffffffffffffffff1673ffffffffffffffffffffffffffffffffffffffff16141561059a57600192508091505b80806105a590611f3b565b9150506104e6565b5081156107ea57600381815481106105ee577f4e487b7100000000000000000000000000000000000000000000000000000000600052603260045260246000fd5b90600052602060002090600502016040518060a00160405290816000820160009054906101000a900473ffffffffffffffffffffffffffffffffffffffff1673ffffffffffffffffffffffffffffffffffffffff1673ffffffffffffffffffffffffffffffffffffffff1681526020016001820160009054906101000a900473ffffffffffffffffffffffffffffffffffffffff1673ffffffffffffffffffffffffffffffffffffffff1673ffffffffffffffffffffffffffffffffffffffff1681526020016002820180546106c390611f09565b80601f01602080910402602001604051908101604052809291908181526020018280546106ef90611f09565b801561073c5780601f106107115761010080835404028352916020019161073c565b820191906000526020600020905b81548152906001019060200180831161071f57829003601f168201915b5050505050815260200160038201805461075590611f09565b80601f016020809104026020016040519081016040528092919081815260200182805461078190611f09565b80156107ce5780601f106107a3576101008083540402835291602001916107ce565b820191906000526020600020905b8154815290600101906020018083116107b157829003601f168201915b5050505050815260200160048201548152505092505050610825565b6040517f08c379a000000000000000000000000000000000000000000000000000000000815260040161081c90611cf5565b60405180910390fd5b90565b565b6108326115e3565b6000600460008054906101000a900473ffffffffffffffffffffffffffffffffffffffff16816040518060800160405290816000820160009054906101000a900473ffffffffffffffffffffffffffffffffffffffff1673ffffffffffffffffffffffffffffffffffffffff1673ffffffffffffffffffffffffffffffffffffffff1681526020016001820180546108c990611f09565b80601f01602080910402602001604051908101604052809291908181526020018280546108f590611f09565b80156109425780601f1061091757610100808354040283529160200191610942565b820191906000526020600020905b81548152906001019060200180831161092557829003601f168201915b5050505050815260200160028201805461095b90611f09565b80601f016020809104026020016040519081016040528092919081815260200182805461098790611f09565b80156109d45780601f106109a9576101008083540402835291602001916109d4565b820191906000526020600020905b8154815290600101906020018083116109b757829003601f168201915b505050505081526020016003820180546109ed90611f09565b80601f0160208091040260200160405190810160405280929190818152602001828054610a1990611f09565b8015610a665780601f10610a3b57610100808354040283529160200191610a66565b820191906000526020600020905b815481529060010190602001808311610a4957829003601f168201915b5050505050815250509150915091509091565b60028181548110610a8957600080fd5b90600052602060002090600202016000915090508060000160009054906101000a900473ffffffffffffffffffffffffffffffffffffffff16908060010154905082565b6000610ad76104d8565b905080608001513414610ae957600080fd5b60008060009054906101000a900473ffffffffffffffffffffffffffffffffffffffff1673ffffffffffffffffffffffffffffffffffffffff1634604051610b3090611b9f565b60006040518083038185875af1925050503d8060008114610b6d576040519150601f19603f3d011682016040523d82523d6000602084013e610b72565b606091505b5050905080610bb6576040517f08c379a0000000000000000000000000000000000000000000000000000000008152600401610bad90611d15565b60405180910390fd5b610bbf336113a7565b610bc933346111fb565b610bd16113ea565b5050565b60048060000160009054906101000a900473ffffffffffffffffffffffffffffffffffffffff1690806001018054610c0c90611f09565b80601f0160208091040260200160405190810160405280929190818152602001828054610c3890611f09565b8015610c855780601f10610c5a57610100808354040283529160200191610c85565b820191906000526020600020905b815481529060010190602001808311610c6857829003601f168201915b505050505090806002018054610c9a90611f09565b80601f0160208091040260200160405190810160405280929190818152602001828054610cc690611f09565b8015610d135780601f10610ce857610100808354040283529160200191610d13565b820191906000526020600020905b815481529060010190602001808311610cf657829003601f168201915b505050505090806003018054610d2890611f09565b80601f0160208091040260200160405190810160405280929190818152602001828054610d5490611f09565b8015610da15780601f10610d7657610100808354040283529160200191610da1565b820191906000526020600020905b815481529060010190602001808311610d8457829003601f168201915b5050505050905084565b600080600154831015610df3576040517f08c379a0000000000000000000000000000000000000000000000000000000008152600401610dea90611cd5565b60405180910390fd5b60005b600380549050811015610ebd573373ffffffffffffffffffffffffffffffffffffffff1660038281548110610e54577f4e487b7100000000000000000000000000000000000000000000000000000000600052603260045260246000fd5b906000526020600020906005020160000160009054906101000a900473ffffffffffffffffffffffffffffffffffffffff1673ffffffffffffffffffffffffffffffffffffffff161415610eaa57600192508091505b8080610eb590611f3b565b915050610df6565b508161104f5760036040518060a001604052803373ffffffffffffffffffffffffffffffffffffffff1681526020013073ffffffffffffffffffffffffffffffffffffffff1681526020018681526020016040518060400160405280600681526020017f756e706169640000000000000000000000000000000000000000000000000000815250815260200185815250908060018154018082558091505060019003906000526020600020906005020160009091909190915060008201518160000160006101000a81548173ffffffffffffffffffffffffffffffffffffffff021916908373ffffffffffffffffffffffffffffffffffffffff16021790555060208201518160010160006101000a81548173ffffffffffffffffffffffffffffffffffffffff021916908373ffffffffffffffffffffffffffffffffffffffff1602179055506040820151816002019080519060200190611020929190611621565b50606082015181600301908051906020019061103d929190611621565b506080820151816004015550506111f5565b6040518060a001604052803373ffffffffffffffffffffffffffffffffffffffff1681526020013073ffffffffffffffffffffffffffffffffffffffff1681526020018581526020016040518060400160405280600681526020017f756e70616964000000000000000000000000000000000000000000000000000081525081526020018481525060038281548110611111577f4e487b7100000000000000000000000000000000000000000000000000000000600052603260045260246000fd5b906000526020600020906005020160008201518160000160006101000a81548173ffffffffffffffffffffffffffffffffffffffff021916908373ffffffffffffffffffffffffffffffffffffffff16021790555060208201518160010160006101000a81548173ffffffffffffffffffffffffffffffffffffffff021916908373ffffffffffffffffffffffffffffffffffffffff16021790555060408201518160020190805190602001906111c9929190611621565b5060608201518160030190805190602001906111e6929190611621565b50608082015181600401559050505b50505050565b3373ffffffffffffffffffffffffffffffffffffffff1660008054906101000a900473ffffffffffffffffffffffffffffffffffffffff1673ffffffffffffffffffffffffffffffffffffffff1614611289576040517f08c379a000000000000000000000000000000000000000000000000000000000815260040161128090611d35565b60405180910390fd5b600260405180604001604052808473ffffffffffffffffffffffffffffffffffffffff16815260200183815250908060018154018082558091505060019003906000526020600020906002020160009091909190915060008201518160000160006101000a81548173ffffffffffffffffffffffffffffffffffffffff021916908373ffffffffffffffffffffffffffffffffffffffff16021790555060208201518160010155505080600181905550803373ffffffffffffffffffffffffffffffffffffffff167ff78b5db4ad3887574d28f1e9ed6fc1d006a48ac79a1e53a6daadc4e54895327460405160405180910390a35050565b60008054906101000a900473ffffffffffffffffffffffffffffffffffffffff1681565b565b806000806101000a81548173ffffffffffffffffffffffffffffffffffffffff021916908373ffffffffffffffffffffffffffffffffffffffff16021790555050565b60006113f46104d8565b905060036040518060a001604052803373ffffffffffffffffffffffffffffffffffffffff1681526020013073ffffffffffffffffffffffffffffffffffffffff168152602001836040015181526020016040518060400160405280600481526020017f706169640000000000000000000000000000000000000000000000000000000081525081526020018360800151815250908060018154018082558091505060019003906000526020600020906005020160009091909190915060008201518160000160006101000a81548173ffffffffffffffffffffffffffffffffffffffff021916908373ffffffffffffffffffffffffffffffffffffffff16021790555060208201518160010160006101000a81548173ffffffffffffffffffffffffffffffffffffffff021916908373ffffffffffffffffffffffffffffffffffffffff160217905550604082015181600201908051906020019061155b929190611621565b506060820151816003019080519060200190611578929190611621565b5060808201518160040155505050565b6040518060a00160405280600073ffffffffffffffffffffffffffffffffffffffff168152602001600073ffffffffffffffffffffffffffffffffffffffff1681526020016060815260200160608152602001600081525090565b6040518060800160405280600073ffffffffffffffffffffffffffffffffffffffff1681526020016060815260200160608152602001606081525090565b82805461162d90611f09565b90600052602060002090601f01602090048101928261164f5760008555611696565b82601f1061166857805160ff1916838001178555611696565b82800160010185558215611696579182015b8281111561169557825182559160200191906001019061167a565b5b5090506116a391906116a7565b5090565b5b808211156116c05760008160009055506001016116a8565b5090565b60006116d76116d284611dd8565b611da7565b9050828152602081018484840111156116ef57600080fd5b6116fa848285611ec7565b509392505050565b60008135905061171181612022565b92915050565b600082601f83011261172857600080fd5b81356117388482602086016116c4565b91505092915050565b60008135905061175081612039565b92915050565b6000806040838503121561176957600080fd5b600061177785828601611702565b925050602061178885828601611741565b9150509250929050565b600080604083850312156117a557600080fd5b600083013567ffffffffffffffff8111156117bf57600080fd5b6117cb85828601611717565b92505060206117dc85828601611741565b9150509250929050565b6000602082840312156117f857600080fd5b600061180684828501611741565b91505092915050565b600061181b8383611ad5565b60408301905092915050565b61183081611e8b565b82525050565b61183f81611e79565b82525050565b61184e81611e79565b82525050565b600061185f82611e18565b6118698185611e3b565b935061187483611e08565b8060005b838110156118a557815161188c888261180f565b975061189783611e2e565b925050600181019050611878565b5085935050505092915050565b60006118bd82611e23565b6118c78185611e57565b93506118d7818560208601611ed6565b6118e081612011565b840191505092915050565b60006118f682611e23565b6119008185611e68565b9350611910818560208601611ed6565b61191981612011565b840191505092915050565b6000611931602683611e68565b91507f50726963652073686f756c64206c6172676572207468616e2063757272656e7460008301527f20707269636500000000000000000000000000000000000000000000000000006020830152604082019050919050565b6000611997600983611e68565b91507f4e6f7420666f756e6400000000000000000000000000000000000000000000006000830152602082019050919050565b60006119d7601483611e68565b91507f4661696c656420746f2073656e642045746865720000000000000000000000006000830152602082019050919050565b6000611a17602083611e68565b91507f4f776e61626c653a2063616c6c6572206973206e6f7420746865206f776e65726000830152602082019050919050565b6000611a57600083611e4c565b9150600082019050919050565b6000608083016000830151611a7c6000860182611836565b5060208301518482036020860152611a9482826118b2565b91505060408301518482036040860152611aae82826118b2565b91505060608301518482036060860152611ac882826118b2565b9150508091505092915050565b604082016000820151611aeb6000850182611836565b506020820151611afe6020850182611b81565b50505050565b600060a083016000830151611b1c6000860182611836565b506020830151611b2f6020860182611836565b5060408301518482036040860152611b4782826118b2565b91505060608301518482036060860152611b6182826118b2565b9150506080830151611b766080860182611b81565b508091505092915050565b611b8a81611ebd565b82525050565b611b9981611ebd565b82525050565b6000611baa82611a4a565b9150819050919050565b6000602082019050611bc96000830184611827565b92915050565b600060a082019050611be46000830188611845565b611bf16020830187611845565b8181036040830152611c0381866118eb565b90508181036060830152611c1781856118eb565b9050611c266080830184611b90565b9695505050505050565b6000608082019050611c456000830187611845565b8181036020830152611c5781866118eb565b90508181036040830152611c6b81856118eb565b90508181036060830152611c7f81846118eb565b905095945050505050565b6000604082019050611c9f6000830185611845565b611cac6020830184611b90565b9392505050565b60006020820190508181036000830152611ccd8184611854565b905092915050565b60006020820190508181036000830152611cee81611924565b9050919050565b60006020820190508181036000830152611d0e8161198a565b9050919050565b60006020820190508181036000830152611d2e816119ca565b9050919050565b60006020820190508181036000830152611d4e81611a0a565b9050919050565b60006040820190508181036000830152611d6f8185611a64565b9050611d7e6020830184611845565b9392505050565b60006020820190508181036000830152611d9f8184611b04565b905092915050565b6000604051905081810181811067ffffffffffffffff82111715611dce57611dcd611fe2565b5b8060405250919050565b600067ffffffffffffffff821115611df357611df2611fe2565b5b601f19601f8301169050602081019050919050565b6000819050602082019050919050565b600081519050919050565b600081519050919050565b6000602082019050919050565b600082825260208201905092915050565b600081905092915050565b600082825260208201905092915050565b600082825260208201905092915050565b6000611e8482611e9d565b9050919050565b6000611e9682611e9d565b9050919050565b600073ffffffffffffffffffffffffffffffffffffffff82169050919050565b6000819050919050565b82818337600083830152505050565b60005b83811015611ef4578082015181840152602081019050611ed9565b83811115611f03576000848401525b50505050565b60006002820490506001821680611f2157607f821691505b60208210811415611f3557611f34611fb3565b5b50919050565b6000611f4682611ebd565b91507fffffffffffffffffffffffffffffffffffffffffffffffffffffffffffffffff821415611f7957611f78611f84565b5b600182019050919050565b7f4e487b7100000000000000000000000000000000000000000000000000000000600052601160045260246000fd5b7f4e487b7100000000000000000000000000000000000000000000000000000000600052602260045260246000fd5b7f4e487b7100000000000000000000000000000000000000000000000000000000600052604160045260246000fd5b6000601f19601f8301169050919050565b61202b81611e79565b811461203657600080fd5b50565b61204281611ebd565b811461204d57600080fd5b5056fea2646970667358221220d96244d890f41f538ebc1ea6f6ac6c8bca1b54df3063e9f4a8c7208ae1a6eeb964736f6c63430008000033",
  "linkReferences": {},
  "deployedLinkReferences": {}
}