{
  "_format": "hh-sol-artifact-1",
  "contractName": "Diamond",
  "sourceName": "contracts/Diamond.sol",
  "abi": [
    {
      "inputs": [
        {
          "internalType": "string",
          "name": "image",
          "type": "string"
        },
        {
          "internalType": "string",
          "name": "name",
          "type": "string"
        },
        {
          "internalType": "string",
          "name": "company",
          "type": "string"
        }
      ],
      "stateMutability": "payable",
      "type": "constructor"
    },
    {
      "inputs": [],
      "name": "checkoutPayment",
      "outputs": [],
      "stateMutability": "payable",
      "type": "function"
    },
    {
      "inputs": [],
      "name": "deposit",
      "outputs": [],
      "stateMutability": "payable",
      "type": "function"
    },
    {
      "inputs": [],
      "name": "diamondData",
      "outputs": [
        {
          "internalType": "address",
          "name": "diamondId",
          "type": "address"
        },
        {
          "internalType": "string",
          "name": "image",
          "type": "string"
        },
        {
          "internalType": "string",
          "name": "name",
          "type": "string"
        },
        {
          "internalType": "string",
          "name": "company",
          "type": "string"
        }
      ],
      "stateMutability": "view",
      "type": "function"
    },
    {
      "inputs": [
        {
          "internalType": "uint256",
          "name": "",
          "type": "uint256"
        }
      ],
      "name": "histories",
      "outputs": [
        {
          "internalType": "address",
          "name": "ownerAddress",
          "type": "address"
        },
        {
          "internalType": "uint256",
          "name": "price",
          "type": "uint256"
        }
      ],
      "stateMutability": "view",
      "type": "function"
    },
    {
      "inputs": [],
      "name": "lookupDiamondData",
      "outputs": [
        {
          "components": [
            {
              "internalType": "address",
              "name": "diamondId",
              "type": "address"
            },
            {
              "internalType": "string",
              "name": "image",
              "type": "string"
            },
            {
              "internalType": "string",
              "name": "name",
              "type": "string"
            },
            {
              "internalType": "string",
              "name": "company",
              "type": "string"
            }
          ],
          "internalType": "struct Diamond.DiamondData",
          "name": "",
          "type": "tuple"
        },
        {
          "internalType": "address",
          "name": "",
          "type": "address"
        }
      ],
      "stateMutability": "view",
      "type": "function"
    },
    {
      "inputs": [],
      "name": "lookupHistories",
      "outputs": [
        {
          "components": [
            {
              "internalType": "address",
              "name": "ownerAddress",
              "type": "address"
            },
            {
              "internalType": "uint256",
              "name": "price",
              "type": "uint256"
            }
          ],
          "internalType": "struct Diamond.History[]",
          "name": "",
          "type": "tuple[]"
        }
      ],
      "stateMutability": "view",
      "type": "function"
    },
    {
      "inputs": [],
      "name": "lookupReceipts",
      "outputs": [
        {
          "components": [
            {
              "internalType": "address",
              "name": "clientWallet",
              "type": "address"
            },
            {
              "internalType": "address",
              "name": "diamondId",
              "type": "address"
            },
            {
              "internalType": "string",
              "name": "clientName",
              "type": "string"
            },
            {
              "internalType": "string",
              "name": "status",
              "type": "string"
            },
            {
              "internalType": "uint256",
              "name": "price",
              "type": "uint256"
            }
          ],
          "internalType": "struct Diamond.Receipt",
          "name": "",
          "type": "tuple"
        }
      ],
      "stateMutability": "view",
      "type": "function"
    },
    {
      "inputs": [],
      "name": "notPayable",
      "outputs": [],
      "stateMutability": "nonpayable",
      "type": "function"
    },
    {
      "inputs": [],
      "name": "owner",
      "outputs": [
        {
          "internalType": "address payable",
          "name": "",
          "type": "address"
        }
      ],
      "stateMutability": "view",
      "type": "function"
    },
    {
      "inputs": [
        {
          "internalType": "uint256",
          "name": "",
          "type": "uint256"
        }
      ],
      "name": "receipts",
      "outputs": [
        {
          "internalType": "address",
          "name": "clientWallet",
          "type": "address"
        },
        {
          "internalType": "address",
          "name": "diamondId",
          "type": "address"
        },
        {
          "internalType": "string",
          "name": "clientName",
          "type": "string"
        },
        {
          "internalType": "string",
          "name": "status",
          "type": "string"
        },
        {
          "internalType": "uint256",
          "name": "price",
          "type": "uint256"
        }
      ],
      "stateMutability": "view",
      "type": "function"
    },
    {
      "inputs": [
        {
          "internalType": "address",
          "name": "ownerAddress",
          "type": "address"
        },
        {
          "internalType": "uint256",
          "name": "price",
          "type": "uint256"
        }
      ],
      "name": "updateHistory",
      "outputs": [],
      "stateMutability": "nonpayable",
      "type": "function"
    },
    {
      "inputs": [
        {
          "internalType": "string",
          "name": "clientName",
          "type": "string"
        },
        {
          "internalType": "uint256",
          "name": "price",
          "type": "uint256"
        }
      ],
      "name": "upsertReceipt",
      "outputs": [],
      "stateMutability": "nonpayable",
      "type": "function"
    }
  ],
  "bytecode": "0x60806040526040516200249838038062002498833981810160405281019062000029919062000274565b336000806101000a81548173ffffffffffffffffffffffffffffffffffffffff021916908373ffffffffffffffffffffffffffffffffffffffff16021790555060405180608001604052803073ffffffffffffffffffffffffffffffffffffffff16815260200184815260200183815260200182815250600460008201518160000160006101000a81548173ffffffffffffffffffffffffffffffffffffffff021916908373ffffffffffffffffffffffffffffffffffffffff16021790555060208201518160010190805190602001906200010792919062000152565b5060408201518160020190805190602001906200012692919062000152565b5060608201518160030190805190602001906200014592919062000152565b5090505050505062000446565b8280546200016090620003b2565b90600052602060002090601f016020900481019282620001845760008555620001d0565b82601f106200019f57805160ff1916838001178555620001d0565b82800160010185558215620001d0579182015b82811115620001cf578251825591602001919060010190620001b2565b5b509050620001df9190620001e3565b5090565b5b80821115620001fe576000816000905550600101620001e4565b5090565b600062000219620002138462000349565b62000315565b9050828152602081018484840111156200023257600080fd5b6200023f8482856200037c565b509392505050565b600082601f8301126200025957600080fd5b81516200026b84826020860162000202565b91505092915050565b6000806000606084860312156200028a57600080fd5b600084015167ffffffffffffffff811115620002a557600080fd5b620002b38682870162000247565b935050602084015167ffffffffffffffff811115620002d157600080fd5b620002df8682870162000247565b925050604084015167ffffffffffffffff811115620002fd57600080fd5b6200030b8682870162000247565b9150509250925092565b6000604051905081810181811067ffffffffffffffff821117156200033f576200033e62000417565b5b8060405250919050565b600067ffffffffffffffff82111562000367576200036662000417565b5b601f19601f8301169050602081019050919050565b60005b838110156200039c5780820151818401526020810190506200037f565b83811115620003ac576000848401525b50505050565b60006002820490506001821680620003cb57607f821691505b60208210811415620003e257620003e1620003e8565b5b50919050565b7f4e487b7100000000000000000000000000000000000000000000000000000000600052602260045260246000fd5b7f4e487b7100000000000000000000000000000000000000000000000000000000600052604160045260246000fd5b61204280620004566000396000f3fe6080604052600436106100a75760003560e01c806358b6e1981161006457806358b6e198146101c457806369aea784146101ce578063752b1fda146101fc578063777aff7d146102255780638da5cb5b1461024e578063d0e30db014610279576100a7565b80630f7ee1ec146100ac57806311f84ef1146100ed578063168ea70214610118578063273884bd146101435780633bbd81861461015a57806356564b7c14610186575b600080fd5b3480156100b857600080fd5b506100d360048036038101906100ce91906117a2565b610283565b6040516100e4959493929190611b8b565b60405180910390f35b3480156100f957600080fd5b50610102610419565b60405161010f9190611c6f565b60405180910390f35b34801561012457600080fd5b5061012d6104d8565b60405161013a9190611d41565b60405180910390f35b34801561014f57600080fd5b50610158610828565b005b34801561016657600080fd5b5061016f61082a565b60405161017d929190611d11565b60405180910390f35b34801561019257600080fd5b506101ad60048036038101906101a891906117a2565b610a79565b6040516101bb929190611c46565b60405180910390f35b6101cc610acd565b005b3480156101da57600080fd5b506101e3610bd5565b6040516101f39493929190611bec565b60405180910390f35b34801561020857600080fd5b50610223600480360381019061021e919061174e565b610dab565b005b34801561023157600080fd5b5061024c60048036038101906102479190611712565b6111fb565b005b34801561025a57600080fd5b5061026361133d565b6040516102709190611b70565b60405180910390f35b610281611361565b005b6003818154811061029357600080fd5b90600052602060002090600502016000915090508060000160009054906101000a900473ffffffffffffffffffffffffffffffffffffffff16908060010160009054906101000a900473ffffffffffffffffffffffffffffffffffffffff169080600201805461030290611ec5565b80601f016020809104026020016040519081016040528092919081815260200182805461032e90611ec5565b801561037b5780601f106103505761010080835404028352916020019161037b565b820191906000526020600020905b81548152906001019060200180831161035e57829003601f168201915b50505050509080600301805461039090611ec5565b80601f01602080910402602001604051908101604052809291908181526020018280546103bc90611ec5565b80156104095780601f106103de57610100808354040283529160200191610409565b820191906000526020600020905b8154815290600101906020018083116103ec57829003601f168201915b5050505050908060040154905085565b60606002805480602002602001604051908101604052809291908181526020016000905b828210156104cf57838290600052602060002090600202016040518060400160405290816000820160009054906101000a900473ffffffffffffffffffffffffffffffffffffffff1673ffffffffffffffffffffffffffffffffffffffff1673ffffffffffffffffffffffffffffffffffffffff1681526020016001820154815250508152602001906001019061043d565b50505050905090565b6104e0611544565b60008060005b6003805490508110156105ad573373ffffffffffffffffffffffffffffffffffffffff1660038281548110610544577f4e487b7100000000000000000000000000000000000000000000000000000000600052603260045260246000fd5b906000526020600020906005020160000160009054906101000a900473ffffffffffffffffffffffffffffffffffffffff1673ffffffffffffffffffffffffffffffffffffffff16141561059a57600192508091505b80806105a590611ef7565b9150506104e6565b5081156107ea57600381815481106105ee577f4e487b7100000000000000000000000000000000000000000000000000000000600052603260045260246000fd5b90600052602060002090600502016040518060a00160405290816000820160009054906101000a900473ffffffffffffffffffffffffffffffffffffffff1673ffffffffffffffffffffffffffffffffffffffff1673ffffffffffffffffffffffffffffffffffffffff1681526020016001820160009054906101000a900473ffffffffffffffffffffffffffffffffffffffff1673ffffffffffffffffffffffffffffffffffffffff1673ffffffffffffffffffffffffffffffffffffffff1681526020016002820180546106c390611ec5565b80601f01602080910402602001604051908101604052809291908181526020018280546106ef90611ec5565b801561073c5780601f106107115761010080835404028352916020019161073c565b820191906000526020600020905b81548152906001019060200180831161071f57829003601f168201915b5050505050815260200160038201805461075590611ec5565b80601f016020809104026020016040519081016040528092919081815260200182805461078190611ec5565b80156107ce5780601f106107a3576101008083540402835291602001916107ce565b820191906000526020600020905b8154815290600101906020018083116107b157829003601f168201915b5050505050815260200160048201548152505092505050610825565b6040517f08c379a000000000000000000000000000000000000000000000000000000000815260040161081c90611cb1565b60405180910390fd5b90565b565b61083261159f565b6000600460008054906101000a900473ffffffffffffffffffffffffffffffffffffffff16816040518060800160405290816000820160009054906101000a900473ffffffffffffffffffffffffffffffffffffffff1673ffffffffffffffffffffffffffffffffffffffff1673ffffffffffffffffffffffffffffffffffffffff1681526020016001820180546108c990611ec5565b80601f01602080910402602001604051908101604052809291908181526020018280546108f590611ec5565b80156109425780601f1061091757610100808354040283529160200191610942565b820191906000526020600020905b81548152906001019060200180831161092557829003601f168201915b5050505050815260200160028201805461095b90611ec5565b80601f016020809104026020016040519081016040528092919081815260200182805461098790611ec5565b80156109d45780601f106109a9576101008083540402835291602001916109d4565b820191906000526020600020905b8154815290600101906020018083116109b757829003601f168201915b505050505081526020016003820180546109ed90611ec5565b80601f0160208091040260200160405190810160405280929190818152602001828054610a1990611ec5565b8015610a665780601f10610a3b57610100808354040283529160200191610a66565b820191906000526020600020905b815481529060010190602001808311610a4957829003601f168201915b5050505050815250509150915091509091565b60028181548110610a8957600080fd5b90600052602060002090600202016000915090508060000160009054906101000a900473ffffffffffffffffffffffffffffffffffffffff16908060010154905082565b6000610ad76104d8565b905080608001513414610ae957600080fd5b60008060009054906101000a900473ffffffffffffffffffffffffffffffffffffffff1673ffffffffffffffffffffffffffffffffffffffff1634604051610b3090611b5b565b60006040518083038185875af1925050503d8060008114610b6d576040519150601f19603f3d011682016040523d82523d6000602084013e610b72565b606091505b5050905080610bb6576040517f08c379a0000000000000000000000000000000000000000000000000000000008152600401610bad90611cd1565b60405180910390fd5b610bbf33611363565b610bc933346111fb565b610bd16113a6565b5050565b60048060000160009054906101000a900473ffffffffffffffffffffffffffffffffffffffff1690806001018054610c0c90611ec5565b80601f0160208091040260200160405190810160405280929190818152602001828054610c3890611ec5565b8015610c855780601f10610c5a57610100808354040283529160200191610c85565b820191906000526020600020905b815481529060010190602001808311610c6857829003601f168201915b505050505090806002018054610c9a90611ec5565b80601f0160208091040260200160405190810160405280929190818152602001828054610cc690611ec5565b8015610d135780601f10610ce857610100808354040283529160200191610d13565b820191906000526020600020905b815481529060010190602001808311610cf657829003601f168201915b505050505090806003018054610d2890611ec5565b80601f0160208091040260200160405190810160405280929190818152602001828054610d5490611ec5565b8015610da15780601f10610d7657610100808354040283529160200191610da1565b820191906000526020600020905b815481529060010190602001808311610d8457829003601f168201915b5050505050905084565b600080600154831015610df3576040517f08c379a0000000000000000000000000000000000000000000000000000000008152600401610dea90611c91565b60405180910390fd5b60005b600380549050811015610ebd573373ffffffffffffffffffffffffffffffffffffffff1660038281548110610e54577f4e487b7100000000000000000000000000000000000000000000000000000000600052603260045260246000fd5b906000526020600020906005020160000160009054906101000a900473ffffffffffffffffffffffffffffffffffffffff1673ffffffffffffffffffffffffffffffffffffffff161415610eaa57600192508091505b8080610eb590611ef7565b915050610df6565b508161104f5760036040518060a001604052803373ffffffffffffffffffffffffffffffffffffffff1681526020013073ffffffffffffffffffffffffffffffffffffffff1681526020018681526020016040518060400160405280600681526020017f756e706169640000000000000000000000000000000000000000000000000000815250815260200185815250908060018154018082558091505060019003906000526020600020906005020160009091909190915060008201518160000160006101000a81548173ffffffffffffffffffffffffffffffffffffffff021916908373ffffffffffffffffffffffffffffffffffffffff16021790555060208201518160010160006101000a81548173ffffffffffffffffffffffffffffffffffffffff021916908373ffffffffffffffffffffffffffffffffffffffff16021790555060408201518160020190805190602001906110209291906115dd565b50606082015181600301908051906020019061103d9291906115dd565b506080820151816004015550506111f5565b6040518060a001604052803373ffffffffffffffffffffffffffffffffffffffff1681526020013073ffffffffffffffffffffffffffffffffffffffff1681526020018581526020016040518060400160405280600681526020017f756e70616964000000000000000000000000000000000000000000000000000081525081526020018481525060038281548110611111577f4e487b7100000000000000000000000000000000000000000000000000000000600052603260045260246000fd5b906000526020600020906005020160008201518160000160006101000a81548173ffffffffffffffffffffffffffffffffffffffff021916908373ffffffffffffffffffffffffffffffffffffffff16021790555060208201518160010160006101000a81548173ffffffffffffffffffffffffffffffffffffffff021916908373ffffffffffffffffffffffffffffffffffffffff16021790555060408201518160020190805190602001906111c99291906115dd565b5060608201518160030190805190602001906111e69291906115dd565b50608082015181600401559050505b50505050565b3373ffffffffffffffffffffffffffffffffffffffff1660008054906101000a900473ffffffffffffffffffffffffffffffffffffffff1673ffffffffffffffffffffffffffffffffffffffff1614611289576040517f08c379a000000000000000000000000000000000000000000000000000000000815260040161128090611cf1565b60405180910390fd5b600260405180604001604052808473ffffffffffffffffffffffffffffffffffffffff16815260200183815250908060018154018082558091505060019003906000526020600020906002020160009091909190915060008201518160000160006101000a81548173ffffffffffffffffffffffffffffffffffffffff021916908373ffffffffffffffffffffffffffffffffffffffff160217905550602082015181600101555050806001819055505050565b60008054906101000a900473ffffffffffffffffffffffffffffffffffffffff1681565b565b806000806101000a81548173ffffffffffffffffffffffffffffffffffffffff021916908373ffffffffffffffffffffffffffffffffffffffff16021790555050565b60006113b06104d8565b905060036040518060a001604052803373ffffffffffffffffffffffffffffffffffffffff1681526020013073ffffffffffffffffffffffffffffffffffffffff168152602001836040015181526020016040518060400160405280600481526020017f706169640000000000000000000000000000000000000000000000000000000081525081526020018360800151815250908060018154018082558091505060019003906000526020600020906005020160009091909190915060008201518160000160006101000a81548173ffffffffffffffffffffffffffffffffffffffff021916908373ffffffffffffffffffffffffffffffffffffffff16021790555060208201518160010160006101000a81548173ffffffffffffffffffffffffffffffffffffffff021916908373ffffffffffffffffffffffffffffffffffffffff16021790555060408201518160020190805190602001906115179291906115dd565b5060608201518160030190805190602001906115349291906115dd565b5060808201518160040155505050565b6040518060a00160405280600073ffffffffffffffffffffffffffffffffffffffff168152602001600073ffffffffffffffffffffffffffffffffffffffff1681526020016060815260200160608152602001600081525090565b6040518060800160405280600073ffffffffffffffffffffffffffffffffffffffff1681526020016060815260200160608152602001606081525090565b8280546115e990611ec5565b90600052602060002090601f01602090048101928261160b5760008555611652565b82601f1061162457805160ff1916838001178555611652565b82800160010185558215611652579182015b82811115611651578251825591602001919060010190611636565b5b50905061165f9190611663565b5090565b5b8082111561167c576000816000905550600101611664565b5090565b600061169361168e84611d94565b611d63565b9050828152602081018484840111156116ab57600080fd5b6116b6848285611e83565b509392505050565b6000813590506116cd81611fde565b92915050565b600082601f8301126116e457600080fd5b81356116f4848260208601611680565b91505092915050565b60008135905061170c81611ff5565b92915050565b6000806040838503121561172557600080fd5b6000611733858286016116be565b9250506020611744858286016116fd565b9150509250929050565b6000806040838503121561176157600080fd5b600083013567ffffffffffffffff81111561177b57600080fd5b611787858286016116d3565b9250506020611798858286016116fd565b9150509250929050565b6000602082840312156117b457600080fd5b60006117c2848285016116fd565b91505092915050565b60006117d78383611a91565b60408301905092915050565b6117ec81611e47565b82525050565b6117fb81611e35565b82525050565b61180a81611e35565b82525050565b600061181b82611dd4565b6118258185611df7565b935061183083611dc4565b8060005b8381101561186157815161184888826117cb565b975061185383611dea565b925050600181019050611834565b5085935050505092915050565b600061187982611ddf565b6118838185611e13565b9350611893818560208601611e92565b61189c81611fcd565b840191505092915050565b60006118b282611ddf565b6118bc8185611e24565b93506118cc818560208601611e92565b6118d581611fcd565b840191505092915050565b60006118ed602683611e24565b91507f50726963652073686f756c64206c6172676572207468616e2063757272656e7460008301527f20707269636500000000000000000000000000000000000000000000000000006020830152604082019050919050565b6000611953600983611e24565b91507f4e6f7420666f756e6400000000000000000000000000000000000000000000006000830152602082019050919050565b6000611993601483611e24565b91507f4661696c656420746f2073656e642045746865720000000000000000000000006000830152602082019050919050565b60006119d3602083611e24565b91507f4f776e61626c653a2063616c6c6572206973206e6f7420746865206f776e65726000830152602082019050919050565b6000611a13600083611e08565b9150600082019050919050565b6000608083016000830151611a3860008601826117f2565b5060208301518482036020860152611a50828261186e565b91505060408301518482036040860152611a6a828261186e565b91505060608301518482036060860152611a84828261186e565b9150508091505092915050565b604082016000820151611aa760008501826117f2565b506020820151611aba6020850182611b3d565b50505050565b600060a083016000830151611ad860008601826117f2565b506020830151611aeb60208601826117f2565b5060408301518482036040860152611b03828261186e565b91505060608301518482036060860152611b1d828261186e565b9150506080830151611b326080860182611b3d565b508091505092915050565b611b4681611e79565b82525050565b611b5581611e79565b82525050565b6000611b6682611a06565b9150819050919050565b6000602082019050611b8560008301846117e3565b92915050565b600060a082019050611ba06000830188611801565b611bad6020830187611801565b8181036040830152611bbf81866118a7565b90508181036060830152611bd381856118a7565b9050611be26080830184611b4c565b9695505050505050565b6000608082019050611c016000830187611801565b8181036020830152611c1381866118a7565b90508181036040830152611c2781856118a7565b90508181036060830152611c3b81846118a7565b905095945050505050565b6000604082019050611c5b6000830185611801565b611c686020830184611b4c565b9392505050565b60006020820190508181036000830152611c898184611810565b905092915050565b60006020820190508181036000830152611caa816118e0565b9050919050565b60006020820190508181036000830152611cca81611946565b9050919050565b60006020820190508181036000830152611cea81611986565b9050919050565b60006020820190508181036000830152611d0a816119c6565b9050919050565b60006040820190508181036000830152611d2b8185611a20565b9050611d3a6020830184611801565b9392505050565b60006020820190508181036000830152611d5b8184611ac0565b905092915050565b6000604051905081810181811067ffffffffffffffff82111715611d8a57611d89611f9e565b5b8060405250919050565b600067ffffffffffffffff821115611daf57611dae611f9e565b5b601f19601f8301169050602081019050919050565b6000819050602082019050919050565b600081519050919050565b600081519050919050565b6000602082019050919050565b600082825260208201905092915050565b600081905092915050565b600082825260208201905092915050565b600082825260208201905092915050565b6000611e4082611e59565b9050919050565b6000611e5282611e59565b9050919050565b600073ffffffffffffffffffffffffffffffffffffffff82169050919050565b6000819050919050565b82818337600083830152505050565b60005b83811015611eb0578082015181840152602081019050611e95565b83811115611ebf576000848401525b50505050565b60006002820490506001821680611edd57607f821691505b60208210811415611ef157611ef0611f6f565b5b50919050565b6000611f0282611e79565b91507fffffffffffffffffffffffffffffffffffffffffffffffffffffffffffffffff821415611f3557611f34611f40565b5b600182019050919050565b7f4e487b7100000000000000000000000000000000000000000000000000000000600052601160045260246000fd5b7f4e487b7100000000000000000000000000000000000000000000000000000000600052602260045260246000fd5b7f4e487b7100000000000000000000000000000000000000000000000000000000600052604160045260246000fd5b6000601f19601f8301169050919050565b611fe781611e35565b8114611ff257600080fd5b50565b611ffe81611e79565b811461200957600080fd5b5056fea26469706673582212200e9473907fd80052dd4f46ed763be5f3f193d819424f4f502413f5bf4de9500d64736f6c63430008000033",
  "linkReferences": {},
  "deployedLinkReferences": {}
}